:020000040800F2
:100000009006012029020008650200086702000826
:10001000690200086B0200086D0200080000000081
:100020000000000000000000000000006F02000857
:10003000710200080000000073020008590E000859
:1000400077020008770200087702000877020008AC
:10005000770200087702000877020008770200089C
:10006000770200087702000877020008770200088C
:10007000770200087702000877020008770200087C
:10008000770200087702000877020008770200086C
:10009000770200087702000877020008770200085C
:1000A000770200087702000877020008770200084C
:1000B000770200087702000877020008770200083C
:1000C000770200087702000877020008770200082C
:1000D00077020008C1120008E91200087702000840
:1000E000770200087702000877020008770200080C
:1000F00077020008770200087702000877020008FC
:1001000077020008770200087702000877020008EB
:1001100077020008770200087702000877020008DB
:1001200077020008770200087702000877020008CB
:1001300077020008770200087702000877020008BB
:1001400077020008770200087702000877020008AB
:10015000770200087702000877020008770200089B
:10016000770200087702000877020008770200088B
:1001700077020008770200087702000800000000FC
:10018000770200087702000800F002F800F03CF85F
:100190000AA090E8000C82448344AAF10107DA45E2
:1001A00001D100F031F8AFF2090EBAE80F0013F0F8
:1001B000010F18BFFB1A43F0010318478025000008
:1001C000A0250000103A24BF78C878C1FAD8520799
:1001D00024BF30C830C144BF04680C6070470000C1
:1001E0000023002400250026103A28BF78C1FBD840
:1001F000520728BF30C148BF0B6070471FB502F0DF
:1002000097FA1FBD10B510BD00F053F81146FFF767
:10021000F5FF01F087FD00F071F803B4FFF7F2FF7E
:1002200003BC00F079F8000016481749174B9942B3
:100230003CBF50F8042B41F8042BF8D314494FF07D
:1002400000028B4238BF43F8042BFAD3DFF8440096
:10025000016841F470010160BFF34F8FBFF36F8FEE
:100260000D480047FEE7FEE7FEE7FEE7FEE7FEE794
:10027000FEE7FEE7FEE7FEE708480949094A0A4BA0
:10028000704700005C270008000000202C000020C0
:100290009006012088ED00E089010008900001200F
:1002A00090060120900201209002012070477047C3
:1002B0007047754600F02CF8AE4605006946534677
:1002C00020F00700854618B020B5FFF7D5FFBDE840
:1002D00020404FF000064FF000074FF000084FF0AD
:1002E000000B21F00701AC46ACE8C009ACE8C0093E
:1002F000ACE8C009ACE8C0098D46704710B50446AB
:10030000AFF300802046BDE81040FFF786BF000035
:10031000004870472C00012001491820ABBEFEE7C1
:1003200026000200704700001248006840F4804038
:10033000104908600846006820F400400860081D65
:10034000006820F08000091D0860081D006840F466
:100350004040091D0860081D006820F44040091D48
:10036000086004481430006840F0800001491431EE
:1003700008607047000C004870B58AB004460D460E
:10038000164645F0C00001900F48006820F080003C
:100390000D4908600A2000F08BFC012302AA01A984
:1003A0000A4800F03AFD32462146084800F016FDA2
:1003B0000A2000F07DFC0448006840F080000249FB
:1003C00008600AB070BD0000140C004800380040FE
:1003D00037B588B005461446012C04DD9DF824008D
:1003E00040F0400009901048006820F080000E495D
:1003F00008600A2000F05CFC01236A4609A90B484A
:1004000000F00BFD23466A462946084800F005FD2A
:100410000A2000F04DFC0448006840F080000249CA
:1004200008600BB030BD0000140C004800380040DC
:1004300010B50748006E40F001000549086600F05D
:1004400093FB00F041FCFFF76FFF00F01DF810BDBB
:100450000010024010B50446012C07D100F01CFF2B
:1004600000F09CFE064800F053FF08E0022C06D185
:1004700000F080FE00F000FE024800F049FF10BDD1
:10048000004400400038014008B5002000909DF86D
:10049000000040F0070000909DF8000040F00800C8
:1004A00000909DF8000040F0300000909DF80000A2
:1004B0000090012220216846FFF78AFF002000906B
:1004C0009DF8000040F020000090012223216846A2
:1004D000FFF77EFF08BD0000F0B52DED068B81B063
:1004E00005460F46164600200090002401222721D1
:1004F0006846FFF741FF0120A8409DF80010084022
:10050000A8B100200090012239466846FFF734FF69
:100510009DF8000044EA002004B20020009001226F
:1005200031466846FFF728FF9DF800000443204647
:1005300001F08CFE41EC1A0B9FED290B53EC102BB4
:1005400001F0D8FE41EC190B9FED270B53EC102B5B
:1005500001F024FD41EC180B254890ED000B53EC05
:10056000102B51EC180B01F065FC214A03C20CE082
:100570009FED200B53EC102B1D4890ED000B51EC20
:10058000100B01F057FC1A4A03C29FED1C0B53ECF1
:10059000102B174890ED000B51EC100B01F06EFE84
:1005A000E6D30CE09FED170B53EC102B104890EDA9
:1005B000000B51EC100B01F0D1FF0D4A03C29FED6F
:1005C0000D0B53EC102B0A4890ED000B51EC100B67
:1005D00001F08EFFE6D301B0BDEC068BF0BD00004C
:1005E000EC51B81E85EBB13F295C8FC2F5E4834026
:1005F000000000201F85EB51B81E194000000000CC
:100600000000000014AE47E17A141940002000BF3A
:100610000B49096801F004010029F9D1002006E026
:10062000002207490C3141F82020411CC8B20F2894
:10063000F6DD0349096841F00401014A1160704781
:10064000082400402F48806D00F0805028B92D48C4
:10065000806D40F080502B4988652A48806D2A487B
:10066000006800F4807060B92748006840F480702A
:100670002549086000BF2448006800F48070002805
:10068000F9D020489030006820F005001D49C1F8DD
:1006900090000846D0F8900040F48030C1F89000F7
:1006A0000846D0F8900020F48030C1F8900007E0B0
:1006B00014489030006840F001001249C1F89000E1
:1006C00010489030006800F002000028F0D00D487B
:1006D0009030006820F440700A49C1F89000084644
:1006E000D0F8900040F48070C1F890000846806D0A
:1006F00020F0805088650846806D40F40070886561
:100700007047000000100240007000403E48006842
:1007100020F001003C490860081D006840F470109A
:10072000091D08600846006820F0707008600846DF
:10073000006820F4403008600846006820F46040FB
:1007400008600846006840F4804008600846006879
:1007500040F0700008600846006820F4E05008602F
:100760000846006840F4A05008600846006820F081
:10077000700008600846006840F04000086000BF54
:1007800021480830006800F020000028F8D01E48FA
:10079000006820F01C001C4908600846006840F012
:1007A0000C0008600846006820F0600008600846F9
:1007B000006840F0400008600846006820F08000B3
:1007C00008600846006820F00200086008460068DB
:1007D00040F00100086000BF0B480830006800F0DE
:1007E00001000028F8D000BF07480830006800F07A
:1007F00010000028F8D004480830006840F00400D9
:1008000001490831086070470024004000B500F03D
:1008100007F8FFF717FFFFF779FFFFF7F7FE00BDB7
:100820005E48C06C40F00F005C49C8644FF09040D7
:1008300000685B4908404FF0904108600846006836
:10084000584908434FF0904108600846006A40F05C
:100850003B4008620846406A534908434FF09041C4
:100860004862084680684E4908404FF090418860D1
:10087000084680684B4908434FF09041886008461D
:10088000C068474908404FF09041C8604748006839
:1008900047490840454908600846006845490843FB
:1008A0004249086041482030006840F0BB103F4991
:1008B000203108603D48406A3F4908433B4948624F
:1008C0003A48083000683A49084038490831086019
:1008D0000846006837490843344908310860081D54
:1008E00000683349084031490C31086033480068DA
:1008F00033490840314908600846006831490843D7
:100900002E4908602D48203000682F4908432B49A4
:10091000203108602948406A40F00B0127484162B5
:1009200026480830006826490840244908310860F4
:100930000846006823490843204908310860081D1B
:1009400000681F4908401D490C3108601F480068B5
:1009500080B21E490860084600681D4908431B49CB
:1009600008600846406A40F0BB31184841621748A9
:10097000083000686FF30F0014490831086008461A
:10098000006813490843114908310860081D0068D0
:100990006FF30F00091D086070470000001002404F
:1009A000FF0FC03F00A02A80BB0B00B0000400482E
:1009B000F0F0F3000A0A08AAB000BBBB0008004828
:1009C0003F00FCFF80AA020000B0BBBB000C004847
:1009D0000000AAAA2048C06C40F012001E49C8645A
:1009E0001E48006820F030001C4908600846006876
:1009F00040F010000860081D006820F00400091D88
:100A0000086016480C30006820F0300013490C31A3
:100A1000086012481430006820F004000F491431B7
:100A200008600F48006820F440300D49086008460F
:100A3000006840F4803008600846406820F4807008
:100A400048600846C06820F44030C86008464069E5
:100A500020F4807048617047001002400004004894
:100A6000001000483D48006E40F400103B49086605
:100A70003B48006820F48030394908600846006827
:100A800020F00C0008600846006820F003000860B1
:100A90000846006820F4807008600846006840F44A
:100AA000007008600846006820F0E0000860084612
:100AB000006840F0800008600846006820F470007C
:100AC0000860081D006820F00700091D086008463E
:100AD000006840F001000860081D006840F01F0039
:100AE000091D08600846006840F480200860084638
:100AF000006840F4803008600846006820F4003048
:100B000008600846006840F470600860081D0068CE
:100B100020F01F00091D08600846006820F0C00092
:100B20000860084600680F4908430D490C31086009
:100B30000846006840F4403008600846006820F429
:100B4000706008600846006840F4807008600448DF
:100B5000006840F48030024908607047001002408D
:100B6000045401400000FFFF4F48C06C40F00800F3
:100B70004D49C8644D48006820F004004B490860A6
:100B80000846006840F008000860484820300068C7
:100B900040F010004549203108600846006820F008
:100BA000200008600846006840F0400008600846E1
:100BB000006820F0800008603C48006820F0400099
:100BC0003A4908600846006840F0800008603748ED
:100BD0002030006840F480503449203108600846D5
:100BE000006820F4005008600846006840F4804027
:100BF00008600846006820F4004008602B48006840
:100C000020F48070294908600846006840F40070AC
:100C1000086026482030006840F4803023492031A5
:100C200008600846006820F4003008600846006844
:100C300040F4802008600846006820F40020086026
:100C40001A48001D006820F002001849091D0860BC
:100C50000846006820F0080008600846006820F098
:100C600010000860081D006840F00C00091D0860B5
:100C70000846006840F0C00008600846006840F47C
:100C800040700860081D006820F00C00091D086015
:100C90000846006820F0C00008600846006820F49C
:100CA000407008607047000000100240000C0048CF
:100CB000002105E0002200E0521C122AFCD3491C4E
:100CC0008142F7D3704700004248806D40F4804075
:100CD000404988650846806B40F480408863084638
:100CE000806B20F4804088633B48006820F040001F
:100CF000394908600846006820F4806008600846AA
:100D0000006820F4004008600846006820F4804035
:100D100008600846006820F080000860081D006830
:100D200020F47060091D08600846006840F4807077
:100D300008600846006840F40070086008460068D3
:100D400040F4806008600846006820F010000860E9
:100D5000081F006820F00200091F086008460068AC
:100D600020F0010008600846006820F038000860A4
:100D70000846006840F0080008600846006840F037
:100D8000100008600846006820F40050086008461B
:100D9000006840F0040008600846006840F40070F5
:100DA0000860081D006840F00800091D0860081F61
:100DB000006840F48070091F0860081D006840F456
:100DC0008050091D0860081F006840F04000091F9E
:100DD00008607047001002400038004010B50B4614
:100DE000002100BF10E000BF846804F00204022C60
:100DF000FAD15C5C047300BF846804F00104002C29
:100E0000FAD0047B5C54491C9142ECDB00BF84683F
:100E100004F08004802CFAD010BD30B50C460021BF
:100E200000BF10E000BF856805F00205022DFAD171
:100E3000655C057300BF856805F00105002DFAD0DB
:100E4000057B5554491C9942ECDB00BF856805F0D1
:100E50008005802DFAD030BD02480068401C014951
:100E6000086070472800002010B500204FF0E021F6
:100E700008611D48486100208861401E012100284A
:100E800004DB0A07130E194A135406E00A07140E6E
:100E9000174A00F00F031B1FD45400BF4FF0FF3060
:100EA00000280DDB00BF00BF00F01F0201219140B0
:100EB0004209920002F1E022C2F8001100BF00BF17
:100EC00000BF4FF0E020006940F002004FF0E02149
:100ED00008610846006940F004000861084600699E
:100EE00040F00100086110BD7F38010000E400E01F
:100EF00018ED00E05E49096821F007015C4A1160C5
:100F00001146096841F0020111605A49096841F42B
:100F10008071584A116000BF5649096801F4806128
:100F20000029F9D010205349496821F0F851514A5D
:100F300051601146496841EA0061516011460968F3
:100F400021F08071116000BF4A49096801F0007109
:100F5000B1F1007FF8D04749C96821F00301454A43
:100F6000D1601146C96841F00201D1601146C968DB
:100F700021F4FE4141F4A051D1601146C96821F02D
:100F8000700141F01001D1601146C96821F0C061C3
:100F9000D1601146C96841F08071D160114609687D
:100FA00041F08071116000BF3249096801F00071A1
:100FB0000029F9D02F49896821F003012D4A916059
:100FC0001146896841F00301916000BF2949896891
:100FD00001F00C010C29F9D12649896821F0F001B2
:100FE000244A91601146896821F4E06191601146BC
:100FF000896821F4605191601146096821F080618F
:10100000116000BF1B49096801F08061B1F1806F78
:10101000F8D01849096921F4FE41164A11611146B8
:10102000096941F4C05111611146096941F4003167
:1010300011611146096941F4803111611146096855
:1010400041F08061116000BF0A49096801F08061C8
:101050000029F9D007498831096821F44001054A7F
:10106000C2F888101146096E41F4001111667047EC
:1010700000200240001002403C48C06C40F00200DA
:101080003A49C8643A48006820F4805038490860FA
:101090000846006840F40050086035482030006879
:1010A00040F080703249203108600846006840F006
:1010B000007008600846006840F0806008600846DC
:1010C000006820F0006008602948006820F4804033
:1010D000274908600846006840F40040086024483A
:1010E0002030006840F080502149203108600846D7
:1010F000006840F0005008600846006840F08040FA
:1011000008600846006820F0004008601848083071
:10111000006840F4405016490831086008460068ED
:1011200040F440400860081F006820F04000091F9C
:1011300008600846006820F0800008600C480C3009
:10114000006820F440500A490C31086008460068E5
:1011500020F4404008600846006840F48050086071
:101160000846006840F48040086070470010024064
:10117000000400480848006E40F4804006490866B4
:101180000846806820F0E06088600846806840F08B
:101190008070886070470000001002403C48C06CBE
:1011A00040F008003A49C8643A48006820F480607A
:1011B000384908600846006840F400600860354817
:1011C0002030006840F48010324920310860084621
:1011D000006840F4001008600846006840F4800091
:1011E00008600846006820F400000860294800688C
:1011F00020F48050274908600846006840F40050F9
:10120000086024482030006840F080702149203177
:1012100008600846006840F00070086008460068F2
:1012200040F0806008600846006820F000600860B8
:1012300018480830006840F44060164908310860DA
:101240000846006840F440500860081F006820F01D
:101250002000091F08600846006820F04000086070
:101260000C480C30006820F440600A490C310860DA
:101270000846006820F4405008600846006840F4C2
:10128000806008600846006840F48050086070473D
:1012900000100240000C00480848806D40F4003007
:1012A000064988650846806820F0E0608860084646
:1012B000806840F080708860704700000010024035
:1012C00010B50848006800F0200048B105481C38F7
:1012D00000F08AFB0348006820F020000149086004
:1012E00010BD00001C38014010B50848006800F02F
:1012F000200048B105481C3800F076FB0348006820
:1013000020F020000149086010BD00001C4400408E
:1013100010B50446206820F001002060206820F00D
:1013200010202060206820F400402060606820F4D5
:10133000405060603820E060206840F00800206085
:10134000206840F004002060206840F02000206009
:101350000C48844207D1252000F018F800212520F0
:1013600000F026F809E00848844206D1262000F063
:101370000DF80021262000F01BF8206840F0010045
:10138000206010BD003801400044004000280DDB03
:1013900000BF00BF00F01F020121914042099200EE
:1013A00002F1E022C2F8001100BF00BF7047000048
:1013B00010B5002804DB0A07130E054A135406E093
:1013C0000A07140E034A00F00F031B1FD45410BD6C
:1013D00000E400E018ED00E072B60849097831B980
:1013E00007490968C1F50041B1F5804F01D20121DB
:1013F00000E00021084662B670470000140000209B
:101400001000002072B60449097809B1012100E0FA
:101410000021084662B670471500002072B60649E2
:10142000097809B1002004E00449054A126801EB7B
:10143000420062B670470000150000202C0000201A
:101440000800002072B600200649086006490860BE
:10145000064908600649087001200649087062B60E
:1014600070470000080000200C0000201000002041
:10147000140000201500002072B60E480078B8B99C
:101480000D480088401CC0F30E000B490860002086
:101490000A4908700A480068401E09490860064861
:1014A000006808490968884202D101200149087092
:1014B00062B67047150000200800002014000020CC
:1014C000100000200C00002072B6134A12780ABBEC
:1014D000124A134B1B6802F81300114B1B6802EBF6
:1014E000430251700E4A1288521CC2F30E020C4B7A
:1014F0001A6000220B4B1A700B4A1268521C0A4BDE
:101500001A600A4A1268064B1B689A4202D10122ED
:10151000014B1A7062B67047140000202C000020A6
:101520000C00002015000020100000200800002002
:101530002DE9FC4794244FF00309022505260627D0
:101540004FF00408E248C06C40F01000E049C86465
:10155000E04800684FEA4902032191408843DD4991
:101560000860084600684FEA49020121914008439B
:10157000D849086008464069012101FA09F1884309
:10158000D44948610020019002E00198401C01907C
:101590000198B0F57A6FF8DBCE484069012101FA75
:1015A00009F10843CB4948610020019002E001980D
:1015B000401C01900198B0F57A6FF8DB02208DF89D
:1015C000000001208DF80100E1B202236A46C24802
:1015D00000F02CFB00208DF8000099208DF8010010
:1015E000E1B202236A46BC4800F020FB47208DF898
:1015F000000080208DF80100E1B202236A46B6485F
:1016000000F014FB32208DF80000BB208DF80100A3
:10161000E1B202236A46B04800F008FB32208DF8A0
:1016200000003B208DF80100E1B202236A46AA487F
:1016300000F0FCFA00208DF800008DF80100E1B206
:1016400002236A46A44800F0F1FAA24800686A0042
:101650000321914088439F490860084600686A005A
:101660000221914008439B490860084600687200C7
:10167000032191408843974908600846006872003A
:1016800002219140084393490860084600687A00A7
:101690000321914088438F490860084600687A001A
:1016A0000221914008438B490860084600684FEAD0
:1016B0004802032191408843864908600846006833
:1016C0004FEA4802022191400843824908600846D7
:1016D000006A20F4706008620846006A40F45060B6
:1016E00008620846006A20F4702008620846006A12
:1016F00040F4502008620846006A20F47000086236
:101700000846006A40F4500008620846006A20F06B
:10171000706008620846006A40F05060086208463F
:10172000C0686A000321914088436A49C86008463E
:10173000C06872000321914088436649C86008462A
:10174000C0687A000321914088436249C860084616
:10175000C0684FEA48020321914088435D49C86050
:10176000084640680121A94088435A494860084614
:1017700040680121B14088435649486008464068A6
:101780000121B94088435349486008464168012017
:1017900000FA08F081434F48416080686A000321E5
:1017A000914008434B4988600846806872000321D5
:1017B0009140084347498860084680687A000321C1
:1017C0009140084343498860084680684FEA4802D0
:1017D0000321914008433F4988600020019002E0C6
:1017E0000198401C01900198B0F57A6FF8DB052054
:1017F0008DF8000080208DF80100E1B202236A46D6
:10180000354800F013FA06208DF8000004208DF80A
:101810000100E1B202236A462F4800F007FA3C209B
:1018200000F07EF80D208DF80000C0208DF801003A
:10183000E1B202236A46284800F0F8F90A208DF840
:10184000000000208DF80100E1B202236A46224820
:1018500000F0ECF90E208DF8000004208DF8010056
:10186000E1B202236A461C4800F0E0F927208DF817
:10187000000000208DF80100E1B202236A461648FC
:1018800000F0D4F91F208DF800000F208DF8010022
:10189000E1B202236A46104800F0C8F91A208DF818
:1018A00000000F208DF80100E1B202236A460A48C9
:1018B00000F0BCF91B208DF800000F208DF801000E
:1018C000E1B202236A46044800F0B0F900F006B81D
:1018D0000010024000100048005400400CBCBDE85D
:1018E000F087000038B5942404208DF80000AF2064
:1018F0008DF80100214602236A46084800F096F957
:1019000002208DF800009E208DF801002146022360
:101910006A46024800F08AF938BD000000540040D1
:10192000F8B505469424642D01DD642005E0C5EB7F
:101930000520642190FBF1F0C0B20646E62D1CDDC7
:1019400020208DF80000A6F1E700C0B28DF801005C
:10195000E1B202236A46234800F068F921208DF89D
:101960000000A6F1E700C0B28DF80100E1B2022349
:101970006A461C4800F05AF91BE020208DF8000050
:1019800006F11900C0B28DF80100E1B202236A46E7
:10199000144800F04BF921208DF8000006F11900E1
:1019A000C0B28DF80100E1B202236A460D4800F092
:1019B0003DF922208DF8000000208DF80100E1B2F1
:1019C00002236A46074800F031F923208DF8000011
:1019D00000208DF80100E1B202236A46014800F0C0
:1019E00025F9F8BD0054004070B50446A08CC5B27E
:1019F000154800784C2802D0522821D105E0134820
:101A000005805220104908701BE0114805804C20C9
:101A10000D4908700E4A1288D1B20C4A1288D0B211
:101A2000FFF752FDFFF7D8FC08B1422005E0FFF7B1
:101A3000E9FC08B1452000E067200649088000E085
:101A400000BF00BF70BD00001C0000201E00002071
:101A5000200000202844004070B5522306210722B0
:101A60006F4CA0427ED16F4CA46D44F400146D4DB8
:101A7000AC656C4C8834246824F44054C5F8884024
:101A80002C46D4F8884044F48054C5F888402C464D
:101A9000A46B44F40014AC632C46A46B24F400142F
:101AA000AC632C46E46C44F00204EC645E4C2468A5
:101AB0004E000325B540AC435B4D2C602C4624689A
:101AC0004E000225B5402C43574D2C602C4624680F
:101AD00056000325B540AC43534D2C602C4624687A
:101AE00056000225B5402C434F4D2C604E4C2034FF
:101AF000246824F070644C4D20352C602C462468FA
:101B000044F080642C602C46246824F070442C60DF
:101B10002C46246844F080442C60434C0C342468E8
:101B20004E000325B540AC433F4D0C352C602C4690
:101B3000246856000325B540AC433B4D0C352C6062
:101B4000394C241D246801258D402C43364D2D1D14
:101B50002C602C462468012595402C43324D2D1DC8
:101B60002C6000E011E02C1D24684E000225B540D9
:101B70002C432D4D08352C602C4624685600022538
:101B8000B5402C43284D08352C60046824F001042E
:101B90000460046824F480540460046824F47064CD
:101BA0000460046844F080040460046824F4003491
:101BB000046000240461046924F070440461046931
:101BC00044F0E0440461046944F0310404610469B0
:101BD00044F444540461046944F4600404610469F5
:101BE00044F470240461846824F40044846043F461
:101BF00000448460846824F400448460446824F4CD
:101C000000644460446844F000744460446844F4F0
:101C100000444460046844F00104046070BD0000A6
:101C20000054004000100240000400482DE9F0413B
:101C30000446884617461D46002D00DD1FB94FF0AB
:101C4000FF30BDE8F081204600F063F800232A460B
:101C50004146204600F024F8002608E000BFA069B5
:101C600000F002000028FAD0B85DA062761CAE42F7
:101C7000F4DB00BFA06900F0400020B9A06900F0CB
:101C800010000028F6D0A06900F0100010B14FF04D
:101C9000FF30D6E7204600F02DF80020D1E7000005
:101CA00030B5044660686FF3090020F47F0020F02F
:101CB000807020F0007020F4806020F4005020F448
:101CC000804020F40060012B02D140F4806001E0EC
:101CD00020F48060C1F3090528434FF47F0505EA2D
:101CE0000245284340F40050014D2860606030BD3B
:101CF00024000020416841F48041416000BF8169B7
:101D000001F020010029FAD0C16941F02001C16130
:101D1000704700BF816901F40041B1F5004FF9D06F
:101D20007047000008B59FED3D0B3E4880ED000B6D
:101D3000FFF7E0F8FFF798F8FEF74CFEFEF766FDB8
:101D4000FEF776FBFFF77EFB0120FEF783FB3648AC
:101D5000FFF782FEFEF786FEFFF7EAFBFFF7C2FD04
:101D6000002000904C2757E02C222D210220FEF766
:101D7000B3FB2E48006800F4E020B0F5E02F4BD014
:101D80002A48006800F00800002845D04C2F02D0F7
:101D9000522F31D118E0FFF741FB044644B12078BF
:101DA000C50122480830056020788DF8000009E060
:101DB0009DF80000C5011D480830056000201B4942
:101DC00008310860522719E044B16078C60117480D
:101DD0000830066060788DF8010009E09DF8010088
:101DE000C60112480830066000201049083108601A
:101DF000FFF742FB4C2701E04C2700BF00BFFFF775
:101E0000EBFA08B1422005E0FFF7FCFA08B14520E3
:101E100000E0672006490880A6E7000000000000F7
:101E20000000000000000020005400401854014051
:101E30002844004010B591EA030F48BF83F00043E7
:101E400000F19483841A71EB030C05D2121943EB51
:101E50000C03001B61EB0C01DFF824E14FEA115485
:101E6000A4EB135C1EEA430F18BF9EEA445F73D0D5
:101E700023EA0E03DCF1200E21EA045143F480131F
:101E800032D322FA0CFE10EB0E0023FA0CFE41EBCB
:101E90000E01CCF1200E03FA0EFE10EB0E0051F1F4
:101EA0000001B1F5801FCCF1200E32D201EB0451BC
:101EB00012FA0EF2BDE8104058BF7047401C38BF00
:101EC0005FEA420218BF7047002814BF20F00100EB
:101ED00041F100014FEA410313F5001F38BF70477D
:101EE000A1F1C04100F0FEBA012A43EB0302ACF1BC
:101EF000200CDCF11F0E32BF4FF0000E23FA0CF362
:101F000010EB030041EB0451B4EB115FD0D0A1EB17
:101F1000045101F5801149085FEA300001EB0451DA
:101F20000ED350F1000038BF12FA0EFE08D1BDE802
:101F30001040C9E7401C38BF5FEA4202CAD1C3E77C
:101F4000BDE810404FEA410313F5001F38BF70474A
:101F5000A1F1C04100F0C6BA9EEA445F08D011EA80
:101F60005E0FBDE8104004BF01F000410020704743
:101F7000BDE8104070B500F067FA00BF64FBBE3EDC
:101F80000000E0FF491058BFC1F140415B1058BF4D
:101F9000C3F140438B42EFF3008070472DE9C0410D
:101FA00030B4DFF8A0C23CEA111418BF3CEA1314A5
:101FB00000F0EC8081EA03051CEA111444EAD574B0
:101FC00018BF1CEA131500F0C780A4EB05044FF0FE
:101FD000004545EAC12145EAC32341EA505143EA9D
:101FE000525304F17F74994204F500344FEAC02043
:101FF0004FEAC22208BF904200F09C804FEA13656E
:102000000FF24016765D4FEA134506FB05F7C7F160
:10201000807706FB07F74FEAD737A7FB03687642BE
:10202000C8F58038A7FB06CE38BFA8F1010807FB2A
:1020300008E64FF0000EA6FB028CE6FB03CEDCF1B7
:10204000000CCEF1004E38BFAEF1010EA6FB0C58CD
:102050004FF000074FF00005E6FB0E87A1FB08C616
:10206000A0FB07CE16EB0E0645F10005E1FB076568
:1020700015F1E04E7EBFA4F580345FEA46066D415F
:1020800016F1800745F100054FEA17274FEA06666B
:1020900047EA0567A6F1DE46B6F1805F4FEA1525EF
:1020A0001FD9384624F0010C05EBC471BCF1FE6F5A
:1020B00001EB0C1102D8F0BCBDE8008124425CBFEA
:1020C00001F5801E9EEAC47F02D4F0BCBDE8008109
:1020D000244238D4F0BCA1F1C041BDE8004100F079
:1020E00001BA4FEAD22242EA43524FEAD323A7FB76
:1020F00002864FEAD02040EA415007FB03661EEA01
:102100000E0F4FEAD12105FB026658BFA6EB005621
:10211000B6EB00564FEA520E4EEAC37E18EB0E0E97
:1021200056EB530EBDD518EB02085E417F1C55F1EE
:102130000005B6E74FF480154FF000074FF000069A
:102140004FF00008ADE7F0BC4FF0000001F1C041D6
:1021500001F00041BDE8008111EA0C1F0CEA1315E3
:1021600000D00CE013EA0C1F00F025804FF00000B7
:10217000F0BC81EA030101F00041BDE80081F0BC40
:10218000BDE8004181EA030100F0ACB9F0BCBDE854
:10219000004170B500F058F9097EFC3E00F007B828
:1021A00081EA03014FF0000001F00041704781EA2D
:1021B000030100F097B9F0BCBDE800414FF000000A
:1021C00021497047FFFDFBF9F7F5F4F2F0EEEDEB76
:1021D000E9E8E6E4E3E1E0DEDDDBDAD8D7D5D4D325
:1021E000D1D0CFCDCCCBCAC8C7C6C5C4C2C1C0BF71
:1021F000BEBDBCBBBAB9B8B7B6B5B4B3B2B1B0AF77
:10220000AEADACABAAA9A8A8A7A6A5A4A3A3A2A15A
:10221000A09F9F9E9D9C9C9B9A9999989797969515
:1022200095949393929191908F8F8E8E8D8C8C8BB1
:102230008B8A898988888787868585848483838239
:10224000828181800000FF070000F87F10F00042CB
:1022500048BF4042B0FA80F310FA03F10AD0C3F14C
:102260001D0303F580634FEA415002EB035202EB7A
:10227000D12170474FF000007047000051EA030C75
:1022800017D41CF5801F58BFBCF5801F00F10680D5
:10229000994218BF704708BF9042704707D711F5A1
:1022A000801F58BF13F5801F19D499427047894287
:1022B00070471CF5801F08D5BCF5801FF7D58B42F1
:1022C00018BF704708BF824270474FF4001C1CEBD8
:1022D000410F38BF1CEB430F01D28B42704770B5E2
:1022E00000F0B2F8922449004FF000514FF08053B3
:1022F000FFF748BEDFF848C170B51CEA111E1EBFCB
:102300001CEA13159EEA0C0F95EA0C0F00F06F8083
:1023100081EA030423EA4C134EEAD47E21EA4C11ED
:1023200041F4801143F48013AE44A1FB024CA0FBA6
:102330000365AEF17F7E361955EB0C05A1FB034C0E
:102340004CF10003A0FB021C16EB0C06654153F197
:102350000003094218BF46F0010613F4007F0BD1B9
:102360004FEA03314FEA0530340341EA155140EAA0
:1023700016506FF003020AE04FEAC3214FEAC5206E
:10238000F40241EA555140EA56506FF0020202EB66
:102390002E4201EB025585EACE710AD05FEA440C69
:1023A00018BF24F0004450F1000041F1000120EA80
:1023B000D47040F2FE7C624500D270BDA84214BFCA
:1023C0004FF080444FF04044002E08BF0024BEF17F
:1023D000806FA8BFA1F1C041BDE8704080F282804B
:1023E0004FF0000001F1C04101F0004170479EEA4A
:1023F0000C0F0CEA131518BF95EA0C0F06D04FF01E
:10240000000081EA030E0EF0004170BD00F01CF8E0
:102410008900013E00F007B800F009B84FEA430C0C
:102420005FEA5C5C08D081EA030100F05BB84FEA28
:10243000410C5FEA5C5CF6D14FF000000149704747
:102440000000FF070000F87F0EF1020E2EF0030ED1
:102450005EF8046B364205D4012A43EB030515F5FB
:10246000001F12D8012841EB010C1CF5001F0CD8ED
:102470000ED14FEAD17C15F5001F0CEB4C0C0CF182
:10248000020C08BF4CEBD37C04E04FF0080C01E0D9
:102490004FEAD37C0CEB4C0526FA05F606F007064E
:1024A000B6F1040C06D20EEB860CBDE870404CF081
:1024B000010C6047DFE80CF0090B02024FF000410D
:1024C0004FF00000A1F5002170BD1946104601280B
:1024D00051EB010418BFD4F5001484BF002001F0B3
:1024E000004170BD0808A0F500114FEA31017047A6
:1024F00053EA010C17D41CF5801F58BFBCF5801F90
:1025000000F106808B4218BF704708BF82427047B7
:1025100007D713F5801F58BF11F5801F19D48B42C0
:1025200070479B4270471CF5801F08D5BCF5801F83
:10253000F7D5994218BF704708BF904270474FF4D3
:10254000001C1CEB430F38BF1CEB410F01D299421A
:1025500070470FB40CBC03BCFFF7C1BE10B591EAC5
:10256000030F48BF83F000433FF56CAC841A71EB56
:10257000030C07D212198CF0004C43EB0C03001B28
:1025800061EB0C01DFF8A4E14FEA1154A4EB135CFA
:102590001EEA430F18BF9EEA445F00F0B08023EAB2
:1025A0006E03524221EA0451C3EB6E0338BF5B1E37
:1025B000DCF1200E25D322FA0CFE10EB0E0043FABC
:1025C0000CFE41EB0E01CCF1200E03FA0EFE10EBD7
:1025D0000E0051F10001CCF1200E29D412FA0EF2B6
:1025E00001EB0451BDE8104058BF7047401C1CBFB0
:1025F000B2F1004F704700280CBF491C20F00100C9
:10260000704712EB020E43EB030218BF4FF0010EAE
:102610004EEA4202ACF1200CDCF11E0E54D943FA12
:102620000CFE10EB0E0051F1FF31CCF11E0ED5D592
:102630000EF1010E12FA0EFE404141EB010101EBD9
:10264000445C5FEA5C5C10D910EBDE7001EB045176
:1026500038BFBEF1004FBDE8104018BF70470028DA
:102660000CBF491C20F00100704730D24FEAD42C37
:1026700011F5001124F400641BD0B1FA81F20B3A79
:10268000A41AA41ED2F12003914030FA03F3194397
:10269000904001EBCC71002C01EB0451BDE81040DF
:1026A000A8BF704701F1C0414FF0000001F00041A8
:1026B0007047B0FA80F310FA03F100D110BDE41AAC
:1026C000173C4805C90AE4E701EB045110BD491065
:1026D00001EB0451BDE810404FEA300002E04FF03A
:1026E000000170474A0008BF0042F8D0B2F5001F51
:1026F00028BF704701F000414FF0000070479EEA8C
:10270000445F07D011EA5E0FBDE8104004BF00210E
:1027100000207047BDE8104070B5FFF795FE00BF80
:1027200040DFF63E83F00041104670470000E0FFB6
:102730004FF04070E1EE100A704700005C2700087F
:10274000000000202C000000C401000888270008B9
:102750002C00002064060100E001000800000000D9
:102760000000000000000000000000000000000069
:1027700000000000000000004C000000000000000D
:08278000000000000000000051
:040000050800018965
:00000001FF
