:020000040800F2
:100000008006012029020008650200086702000836
:10001000690200086B0200086D0200080000000081
:100020000000000000000000000000006F02000857
:100030007102000800000000730200087502000849
:1000400077020008770200087702000877020008AC
:10005000770200087702000877020008770200089C
:10006000770200087702000877020008770200088C
:10007000770200087702000877020008770200087C
:10008000770200087702000877020008770200086C
:10009000770200087702000877020008770200085C
:1000A000770200087702000877020008770200084C
:1000B000770200087702000877020008770200083C
:1000C000770200087702000877020008770200082C
:1000D00077020008810B0008A90B000877020008CE
:1000E000770200087702000877020008770200080C
:1000F00077020008770200087702000877020008FC
:1001000077020008770200087702000877020008EB
:1001100077020008770200087702000877020008DB
:1001200077020008770200087702000877020008CB
:1001300077020008770200087702000877020008BB
:1001400077020008770200087702000877020008AB
:10015000770200087702000877020008770200089B
:10016000770200087702000877020008770200088B
:1001700077020008770200087702000800000000FC
:10018000770200087702000800F002F800F03CF85F
:100190000AA090E8000C82448344AAF10107DA45E2
:1001A00001D100F031F8AFF2090EBAE80F0013F0F8
:1001B000010F18BFFB1A43F001031847840C00001D
:1001C000A40C0000103A24BF78C878C1FAD85207AE
:1001D00024BF30C830C144BF04680C6070470000C1
:1001E0000023002400250026103A28BF78C1FBD840
:1001F000520728BF30C148BF0B6070471FB500F0E1
:100200001AFE1FBD10B510BD00F053F81146FFF7E0
:10021000F5FF00F003FE00F071F803B4FFF7F2FF02
:1002200003BC00F079F8000016481749174B9942B3
:100230003CBF50F8042B41F8042BF8D314494FF07D
:1002400000028B4238BF43F8042BFAD3DFF8440096
:10025000016841F470010160BFF34F8FBFF36F8FEE
:100260000D480047FEE7FEE7FEE7FEE7FEE7FEE794
:10027000FEE7FEE7FEE7FEE708480949094A0A4BA0
:1002800070470000600E0008000000201C000020E5
:100290008006012088ED00E089010008800001202F
:1002A00080060120800201208002012070477047F3
:1002B0007047754600F02CF8AE4605006946534677
:1002C00020F00700854618B020B5FFF7D5FFBDE840
:1002D00020404FF000064FF000074FF000084FF0AD
:1002E000000B21F00701AC46ACE8C009ACE8C0093E
:1002F000ACE8C009ACE8C0098D46704710B50446AB
:10030000AFF300802046BDE81040FFF786BF000035
:10031000004870471C00012001491820ABBEFEE7D1
:10032000260002007047000010B50446012C07D1DA
:1003300000F012FC00F092FB064800F049FC08E0D7
:10034000022C06D100F076FB00F0F6FA024800F02D
:100350003FFC10BD0044004000380140002000BFB9
:100360000B49096801F004010029F9D1002006E0D9
:10037000002207490C3141F82020411CC8B20F2847
:10038000F6DD0349096841F00401014A1160704734
:10039000082400402F48806D00F0805028B92D4877
:1003A000806D40F080502B4988652A48806D2A482E
:1003B000006800F4807060B92748006840F48070DD
:1003C0002549086000BF2448006800F480700028B8
:1003D000F9D020489030006820F005001D49C1F890
:1003E00090000846D0F8900040F48030C1F89000AA
:1003F0000846D0F8900020F48030C1F8900007E063
:1004000014489030006840F001001249C1F8900093
:1004100010489030006800F002000028F0D00D482D
:100420009030006820F440700A49C1F890000846F6
:10043000D0F8900040F48070C1F890000846806DBC
:1004400020F0805088650846806D40F40070886513
:100450007047000000100240007000403E480068F5
:1004600020F001003C490860081D006840F470104D
:10047000091D08600846006820F070700860084692
:10048000006820F4403008600846006820F46040AE
:1004900008600846006840F480400860084600682C
:1004A00040F0700008600846006820F4E0500860E2
:1004B0000846006840F4A05008600846006820F034
:1004C000700008600846006840F04000086000BF07
:1004D00021480830006800F020000028F8D01E48AD
:1004E000006820F01C001C4908600846006840F0C5
:1004F0000C0008600846006820F0600008600846AC
:10050000006840F0400008600846006820F0800065
:1005100008600846006820F002000860084600688D
:1005200040F00100086000BF0B480830006800F090
:1005300001000028F8D000BF07480830006800F02C
:1005400010000028F8D004480830006840F004008B
:1005500001490831086070470024004000B500F0F0
:1005600007F8FFF717FFFFF779FFFFF7F7FE00BD6A
:100570005E48C06C40F00F005C49C8644FF090408A
:1005800000685B4908404FF09041086008460068E9
:10059000584908434FF0904108600846006A40F00F
:1005A0003B4008620846406A534908434FF0904177
:1005B0004862084680684E4908404FF09041886084
:1005C000084680684B4908434FF0904188600846D0
:1005D000C068474908404FF09041C86047480068EC
:1005E00047490840454908600846006845490843AE
:1005F0004249086041482030006840F0BB103F4944
:10060000203108603D48406A3F4908433B49486201
:100610003A48083000683A490840384908310860CB
:100620000846006837490843344908310860081D06
:1006300000683349084031490C310860334800688C
:100640003349084031490860084600683149084389
:100650002E4908602D48203000682F4908432B4957
:10066000203108602948406A40F00B012748416268
:1006700026480830006826490840244908310860A7
:100680000846006823490843204908310860081DCE
:1006900000681F4908401D490C3108601F48006868
:1006A00080B21E490860084600681D4908431B497E
:1006B00008600846406A40F0BB311848416217485C
:1006C000083000686FF30F001449083108600846CD
:1006D000006813490843114908310860081D006883
:1006E0006FF30F00091D0860704700000010024002
:1006F000FF0FC03F00A02A80BB0B00B000040048E1
:10070000F0F0F3000A0A08AAB000BBBB00080048DA
:100710003F00FCFF80AA020000B0BBBB000C0048F9
:100720000000AAAA2048C06C40F012001E49C8640C
:100730001E48006820F030001C4908600846006828
:1007400040F010000860081D006820F00400091D3A
:10075000086016480C30006820F0300013490C3156
:10076000086012481430006820F004000F4914316A
:1007700008600F48006820F440300D4908600846C2
:10078000006840F4803008600846406820F48070BB
:1007900048600846C06820F44030C8600846406998
:1007A00020F4807048617047001002400004004847
:1007B000001000485E49096821F007015C4A116099
:1007C0001146096841F0020111605A49096841F473
:1007D0008071584A116000BF5649096801F4806170
:1007E0000029F9D010205349496821F0F851514AA5
:1007F00051601146496841EA00615160114609683B
:1008000021F08071116000BF4A49096801F0007150
:10081000B1F1007FF8D04749C96821F00301454A8A
:10082000D1601146C96841F00201D1601146C96822
:1008300021F4FE4141F4A051D1601146C96821F074
:10084000700141F01001D1601146C96821F0C0610A
:10085000D1601146C96841F08071D16011460968C4
:1008600041F08071116000BF3249096801F00071E8
:100870000029F9D02F49896821F003012D4A9160A0
:100880001146896841F00301916000BF29498968D8
:1008900001F00C010C29F9D12649896821F0F001F9
:1008A000244A91601146896821F4E0619160114603
:1008B000896821F4605191601146096821F08061D6
:1008C000116000BF1B49096801F08061B1F1806FC0
:1008D000F8D01849096921F4FE41164A1161114600
:1008E000096941F4C05111611146096941F40031AF
:1008F00011611146096941F480311161114609689D
:1009000041F08061116000BF0A49096801F080610F
:100910000029F9D007498831096821F44001054AC6
:10092000C2F888101146096E41F400111166704733
:1009300000200240001002403C48C06C40F0020021
:100940003A49C8643A48006820F480503849086041
:100950000846006840F400500860354820300068C0
:1009600040F080703249203108600846006840F04D
:10097000007008600846006840F080600860084623
:10098000006820F0006008602948006820F480407A
:10099000274908600846006840F400400860244881
:1009A0002030006840F0805021492031086008461E
:1009B000006840F0005008600846006840F0804041
:1009C00008600846006820F00040086018480830B9
:1009D000006840F440501649083108600846006835
:1009E00040F440400860081F006820F04000091FE4
:1009F00008600846006820F0800008600C480C3051
:100A0000006820F440500A490C310860084600682C
:100A100020F4404008600846006840F480500860B8
:100A20000846006840F480400860704700100240AB
:100A3000000400480848006E40F4804006490866FB
:100A40000846806820F0E06088600846806840F0D2
:100A50008070886070470000001002403C48C06C05
:100A600040F008003A49C8643A48006820F48060C1
:100A7000384908600846006840F40060086035485E
:100A80002030006840F48010324920310860084668
:100A9000006840F4001008600846006840F48000D8
:100AA00008600846006820F40000086029480068D3
:100AB00020F48050274908600846006840F4005040
:100AC000086024482030006840F0807021492031BF
:100AD00008600846006840F000700860084600683A
:100AE00040F0806008600846006820F00060086000
:100AF00018480830006840F4406016490831086022
:100B00000846006840F440500860081F006820F064
:100B10002000091F08600846006820F040000860B7
:100B20000C480C30006820F440600A490C31086021
:100B30000846006820F4405008600846006840F409
:100B4000806008600846006840F480500860704784
:100B500000100240000C00480848806D40F400304E
:100B6000064988650846806820F0E060886008468D
:100B7000806840F08070886070470000001002407C
:100B800010B50848006800F0200048B105481C383E
:100B900000F0DCF80348006820F0200001490860FC
:100BA00010BD00001C38014010B50848006800F076
:100BB000200048B105481C3800F0C8F80348006818
:100BC00020F020000149086010BD00001C440040D6
:100BD00010B50446206820F001002060206820F055
:100BE00010202060206820F400402060606820F41D
:100BF000405060603820E060206840F008002060CD
:100C0000206840F004002060206840F02000206050
:100C10000C48844207D1252000F018F80021252037
:100C200000F026F809E00848844206D1262000F0AA
:100C30000DF80021262000F01BF8206840F001008C
:100C4000206010BD003801400044004000280DDB4A
:100C500000BF00BF00F01F02012191404209920035
:100C600002F1E022C2F8001100BF00BF704700008F
:100C700010B5002804DB0A07130E054A135406E0DA
:100C80000A07140E034A00F00F031B1FD45410BDB3
:100C900000E400E018ED00E005480068C0F5804081
:100CA000B0F5005F01D2012070470020FCE7000092
:100CB000080000200020064908600649086006492F
:100CC0000860064908700120054908707047000057
:100CD0000000002004000020080000200C0000207C
:100CE0000D000020134A127802B17047124A128890
:100CF000521CC2F30D02104B1A60104A1B6822F8F6
:100D000023000D4B1B6802EB8302518000220C4B29
:100D10001A700C4A1268521C0A4B1A600A4A12686E
:100D2000054B1B689A4202D10122024B1A7000BF88
:100D3000DBE700000C000020040000201C00002065
:100D40000D000020080000200000002070B50446BF
:100D5000A08CC5B22D48007830B1012814D00228EB
:100D600021D003284FD12EE06C20294908704C2057
:100D700048700020274908800846008828430880DA
:100D80000120224908703FE06C202149087055205D
:100D900048702048008840EA05201E49088002204B
:100DA0001A49087030E07220194908704C204870C8
:100DB000002019490880084600882843088003203D
:100DC0001249087020E072201149087055204870BF
:100DD0001148008840EA05200F49088000200B498F
:100DE00008700D4801880B480088FFF77BFFE06919
:100DF00000F0800030B1FFF74FFF08B1422000E063
:100E00006720208500E000BF00BF70BD14000020F7
:100E10000E0000201600002018000020FFF7CAFC7A
:100E2000FFF780FCFFF79AFBFFF744FF0120FFF775
:100E30007BFA00BFFEE74FF04070E1EE100A70470A
:100E4000600E0008000000201C000000C401000823
:100E50007C0E00081C00002064060100E001000870
:100E60000000000000000000000000000000000082
:0C0E700000000000000000000000000076
:040000050800018965
:00000001FF
