:020000040800F2
:100000008006012029020008650200086702000836
:10001000690200086B0200086D0200080000000081
:100020000000000000000000000000006F02000857
:100030007102000800000000730200087502000849
:1000400077020008770200087702000877020008AC
:10005000770200087702000877020008770200089C
:10006000770200087702000877020008770200088C
:10007000770200087702000877020008770200087C
:10008000770200087702000877020008770200086C
:10009000770200087702000877020008770200085C
:1000A000770200087702000877020008770200084C
:1000B000770200087702000877020008770200083C
:1000C000770200087702000877020008770200082C
:1000D00077020008850C0008AD0C000877020008C4
:1000E000770200087702000877020008770200080C
:1000F00077020008770200087702000877020008FC
:1001000077020008770200087702000877020008EB
:1001100077020008770200087702000877020008DB
:1001200077020008770200087702000877020008CB
:1001300077020008770200087702000877020008BB
:1001400077020008770200087702000877020008AB
:10015000770200087702000877020008770200089B
:10016000770200087702000877020008770200088B
:1001700077020008770200087702000800000000FC
:10018000770200087702000800F002F800F03CF85F
:100190000AA090E8000C82448344AAF10107DA45E2
:1001A00001D100F031F8AFF2090EBAE80F0013F0F8
:1001B000010F18BFFB1A43F0010318472016000077
:1001C00040160000103A24BF78C878C1FAD8520708
:1001D00024BF30C830C144BF04680C6070470000C1
:1001E0000023002400250026103A28BF78C1FBD840
:1001F000520728BF30C148BF0B6070471FB501F0E0
:10020000E7FA1FBD10B510BD00F053F81146FFF717
:10021000F5FF01F069FA00F071F803B4FFF7F2FF9F
:1002200003BC00F079F8000016481749174B9942B3
:100230003CBF50F8042B41F8042BF8D314494FF07D
:1002400000028B4238BF43F8042BFAD3DFF8440096
:10025000016841F470010160BFF34F8FBFF36F8FEE
:100260000D480047FEE7FEE7FEE7FEE7FEE7FEE794
:10027000FEE7FEE7FEE7FEE708480949094A0A4BA0
:1002800070470000FC17000800000020200000203C
:100290008006012088ED00E089010008800001202F
:1002A00080060120800201208002012070477047F3
:1002B0007047754600F02CF8AE4605006946534677
:1002C00020F00700854618B020B5FFF7D5FFBDE840
:1002D00020404FF000064FF000074FF000084FF0AD
:1002E000000B21F00701AC46ACE8C009ACE8C0093E
:1002F000ACE8C009ACE8C0098D46704710B50446AB
:10030000AFF300802046BDE81040FFF786BF000035
:10031000004870472000012001491820ABBEFEE7CD
:10032000260002007047000010B50446012C07D1DA
:1003300000F094FC00F014FC064800F0CBFC08E050
:10034000022C06D100F0F8FB00F078FB024800F028
:10035000C1FC10BD0044004000380140002000BF37
:100360000B49096801F004010029F9D1002006E0D9
:10037000002207490C3141F82020411CC8B20F2847
:10038000F6DD0349096841F00401014A1160704734
:10039000082400402F48806D00F0805028B92D4877
:1003A000806D40F080502B4988652A48806D2A482E
:1003B000006800F4807060B92748006840F48070DD
:1003C0002549086000BF2448006800F480700028B8
:1003D000F9D020489030006820F005001D49C1F890
:1003E00090000846D0F8900040F48030C1F89000AA
:1003F0000846D0F8900020F48030C1F8900007E063
:1004000014489030006840F001001249C1F8900093
:1004100010489030006800F002000028F0D00D482D
:100420009030006820F440700A49C1F890000846F6
:10043000D0F8900040F48070C1F890000846806DBC
:1004400020F0805088650846806D40F40070886513
:100450007047000000100240007000403E480068F5
:1004600020F001003C490860081D006840F470104D
:10047000091D08600846006820F070700860084692
:10048000006820F4403008600846006820F46040AE
:1004900008600846006840F480400860084600682C
:1004A00040F0700008600846006820F4E0500860E2
:1004B0000846006840F4A05008600846006820F034
:1004C000700008600846006840F04000086000BF07
:1004D00021480830006800F020000028F8D01E48AD
:1004E000006820F01C001C4908600846006840F0C5
:1004F0000C0008600846006820F0600008600846AC
:10050000006840F0400008600846006820F0800065
:1005100008600846006820F002000860084600688D
:1005200040F00100086000BF0B480830006800F090
:1005300001000028F8D000BF07480830006800F02C
:1005400010000028F8D004480830006840F004008B
:1005500001490831086070470024004000B500F0F0
:1005600007F8FFF717FFFFF779FFFFF7F7FE00BD6A
:100570005E48C06C40F00F005C49C8644FF090408A
:1005800000685B4908404FF09041086008460068E9
:10059000584908434FF0904108600846006A40F00F
:1005A0003B4008620846406A534908434FF0904177
:1005B0004862084680684E4908404FF09041886084
:1005C000084680684B4908434FF0904188600846D0
:1005D000C068474908404FF09041C86047480068EC
:1005E00047490840454908600846006845490843AE
:1005F0004249086041482030006840F0BB103F4944
:10060000203108603D48406A3F4908433B49486201
:100610003A48083000683A490840384908310860CB
:100620000846006837490843344908310860081D06
:1006300000683349084031490C310860334800688C
:100640003349084031490860084600683149084389
:100650002E4908602D48203000682F4908432B4957
:10066000203108602948406A40F00B012748416268
:1006700026480830006826490840244908310860A7
:100680000846006823490843204908310860081DCE
:1006900000681F4908401D490C3108601F48006868
:1006A00080B21E490860084600681D4908431B497E
:1006B00008600846406A40F0BB311848416217485C
:1006C000083000686FF30F001449083108600846CD
:1006D000006813490843114908310860081D006883
:1006E0006FF30F00091D0860704700000010024002
:1006F000FF0FC03F00A02A80BB0B00B000040048E1
:10070000F0F0F3000A0A08AAB000BBBB00080048DA
:100710003F00FCFF80AA020000B0BBBB000C0048F9
:100720000000AAAA2048C06C40F012001E49C8640C
:100730001E48006820F030001C4908600846006828
:1007400040F010000860081D006820F00400091D3A
:10075000086016480C30006820F0300013490C3156
:10076000086012481430006820F004000F4914316A
:1007700008600F48006820F440300D4908600846C2
:10078000006840F4803008600846406820F48070BB
:1007900048600846C06820F44030C8600846406998
:1007A00020F4807048617047001002400004004847
:1007B000001000483D48006E40F400103B490866B8
:1007C0003B48006820F480303949086008460068DA
:1007D00020F00C0008600846006820F00300086064
:1007E0000846006820F4807008600846006840F4FD
:1007F000007008600846006820F0E00008600846C5
:10080000006840F0800008600846006820F470002E
:100810000860081D006820F00700091D08600846F0
:10082000006840F001000860081D006840F01F00EB
:10083000091D08600846006840F4802008600846EA
:10084000006840F4803008600846006820F40030FA
:1008500008600846006840F470600860081D006881
:1008600020F01F00091D08600846006820F0C00045
:100870000860084600680F4908430D490C310860BC
:100880000846006840F4403008600846006820F4DC
:10089000706008600846006840F480700860044892
:1008A000006840F480300249086070470010024040
:1008B000045401400000FFFF5E49096821F0070170
:1008C0005C4A11601146096841F0020111605A4901
:1008D000096841F48071584A116000BF564909689F
:1008E00001F480610029F9D010205349496821F0B2
:1008F000F851514A51601146496841EA006151601E
:100900001146096821F08071116000BF4A490968E9
:1009100001F00071B1F1007FF8D04749C96821F0BA
:100920000301454AD1601146C96841F00201D16016
:100930001146C96821F4FE4141F4A051D16011462D
:10094000C96821F0700141F01001D1601146C968F9
:1009500021F0C061D1601146C96841F08071D16059
:100960001146096841F08071116000BF3249096881
:1009700001F000710029F9D02F49896821F00301A5
:100980002D4A91601146896841F00301916000BFD2
:100990002949896801F00C010C29F9D12649896897
:1009A00021F0F001244A91601146896821F4E06148
:1009B00091601146896821F460519160114609687F
:1009C00021F08061116000BF1B49096801F080615E
:1009D000B1F1806FF8D01849096921F4FE41164A37
:1009E00011611146096941F4C0511161114609694B
:1009F00041F4003111611146096941F480311161FE
:100A00001146096841F08061116000BF0A49096818
:100A100001F080610029F9D007498831096821F483
:100A20004001054AC2F888101146096E41F40011D0
:100A30001166704700200240001002403C48C06C24
:100A400040F002003A49C8643A48006820F48050F7
:100A5000384908600846006840F40050086035488E
:100A60002030006840F0807032492031086008462C
:100A7000006840F0007008600846006840F0806040
:100A800008600846006820F0006008602948006897
:100A900020F48040274908600846006840F4004080
:100AA000086024482030006840F0805021492031FF
:100AB00008600846006840F000500860084600687A
:100AC00040F0804008600846006820F00040086060
:100AD00018480830006840F4405016490831086052
:100AE0000846006840F440400860081F006820F095
:100AF0004000091F08600846006820F08000086078
:100B00000C480C30006820F440500A490C31086051
:100B10000846006820F4404008600846006840F439
:100B2000805008600846006840F4804008607047C4
:100B300000100240000400480848006E40F4804065
:100B4000064908660846806820F0E060886008462C
:100B5000806840F08070886070470000001002409C
:100B60003C48C06C40F008003A49C8643A48006804
:100B700020F48060384908600846006840F400604E
:100B8000086035482030006840F480103249203138
:100B900008600846006840F40010086008460068D5
:100BA00040F4800008600846006820F400000860F7
:100BB0002948006820F480502749086008460068EA
:100BC00040F40050086024482030006840F08070F5
:100BD0002149203108600846006840F00070086034
:100BE0000846006840F0806008600846006820F011
:100BF0000060086018480830006840F440601649FA
:100C0000083108600846006840F440500860081F3A
:100C1000006820F02000091F08600846006820F0E6
:100C2000400008600C480C30006820F440600A491D
:100C30000C3108600846006820F4405008600846FF
:100C4000006840F4806008600846006840F4805006
:100C50000860704700100240000C00480848806D92
:100C600040F40030064988650846806820F0E0605E
:100C700088600846806840F0807088607047000097
:100C80000010024010B50848006800F0200048B18C
:100C900005481C3800F08AFB0348006820F020005B
:100CA0000149086010BD00001C38014010B508481B
:100CB000006800F0200048B105481C3800F076FBC1
:100CC0000348006820F020000149086010BD0000C2
:100CD0001C44004010B50446206820F0010020604C
:100CE000206820F010202060206820F40040206060
:100CF000606820F4405060603820E060206840F078
:100D000008002060206840F004002060206840F067
:100D1000200020600C48844207D1252000F018F8FC
:100D20000021252000F026F809E00848844206D179
:100D3000262000F00DF80021262000F01BF8206886
:100D400040F00100206010BD003801400044004028
:100D500000280DDB00BF00BF00F01F020121914001
:100D60004209920002F1E022C2F8001100BF00BF68
:100D70007047000010B5002804DB0A07130E054A6F
:100D8000135406E00A07140E034A00F00F031B1F5A
:100D9000D45410BD00E400E018ED00E072B608493C
:100DA000097831B907490968C1F50041B1F5804FAB
:100DB00001D2012100E00021084662B67047000020
:100DC0000C0000200800002072B60449097809B11F
:100DD000012100E00021084662B670470D000020A6
:100DE00072B60649097809B1002004E00449054AB1
:100DF000126801EB420062B6704700000D0000204F
:100E0000200000200000002072B600200649086083
:100E1000064908600649086006490870012006492D
:100E2000087062B670470000000000200400002037
:100E3000080000200C0000200D00002072B60E48B3
:100E40000078B8B90D480088401CC0F30E000B496B
:100E5000086000200A4908700A480068401E0949D5
:100E600008600648006808490968884202D10120E4
:100E70000149087062B670470D0000200000002094
:100E80000C000020080000200400002072B6134A65
:100E900012780ABB124A134B1B6802F81300114B5D
:100EA0001B6802EB430251700E4A1288521CC2F3B7
:100EB0000E020C4B1A6000220B4B1A700B4A126880
:100EC000521C0A4B1A600A4A1268064B1B689A4267
:100ED00002D10122014B1A7062B670470C0000204B
:100EE00020000020040000200D0000200800002049
:100EF000000000202DE9FC4794244FF0030902254F
:100F0000052606274FF00408E248C06C40F01000A8
:100F1000E049C864E04800684FEA49020321914073
:100F20008843DD490860084600684FEA490201210C
:100F300091400843D849086008464069012101FAF8
:100F400009F18843D44948610020019002E00198EA
:100F5000401C01900198B0F57A6FF8DBCE484069EB
:100F6000012101FA09F10843CB49486100200190B1
:100F700002E00198401C01900198B0F57A6FF8DB0F
:100F800002208DF8000001208DF80100E1B202235B
:100F90006A46C24800F02CFB00208DF80000992022
:100FA0008DF80100E1B202236A46BC4800F020FB44
:100FB00047208DF8000080208DF80100E1B2022367
:100FC0006A46B64800F014FB32208DF80000BB20C2
:100FD0008DF80100E1B202236A46B04800F008FB38
:100FE00032208DF800003B208DF80100E1B2022391
:100FF0006A46AA4800F0FCFA00208DF800008DF83F
:101000000100E1B202236A46A44800F0F1FAA248C6
:1010100000686A000321914088439F4908600846A0
:1010200000686A000221914008439B490860084615
:101030000068720003219140884397490860084680
:1010400000687200022191400843934908600846F5
:1010500000687A000321914088438F490860084660
:1010600000687A000221914008438B4908600846D5
:1010700000684FEA4802032191408843864908608E
:10108000084600684FEA480202219140084382491D
:1010900008600846006A20F4706008620846006A2A
:1010A00040F4506008620846006A20F4702008622C
:1010B0000846006A40F4502008620846006A20F49E
:1010C000700008620846006A40F450000862084652
:1010D000006A20F0706008620846006A40F05060C4
:1010E00008620846C0686A000321914088436A4943
:1010F000C8600846C0687200032191408843664971
:10110000C8600846C0687A0003219140884362495C
:10111000C8600846C0684FEA4802032191408843EE
:101120005D49C860084640680121A94088435A4982
:101130004860084640680121B140884356494860EC
:10114000084640680121B940884353494860084631
:101150004168012000FA08F081434F4841608068EF
:101160006A000321914008434B4988600846806823
:10117000720003219140084347498860084680680F
:101180007A000321914008434349886008468068FB
:101190004FEA48020321914008433F4988600020FC
:1011A000019002E00198401C01900198B0F57A6F1F
:1011B000F8DB05208DF8000080208DF80100E1B2F9
:1011C00002236A46354800F013FA06208DF8000025
:1011D00004208DF80100E1B202236A462F4800F096
:1011E00007FA3C2000F07EF80D208DF80000C020AA
:1011F0008DF80100E1B202236A46284800F0F8F9B0
:101200000A208DF8000000208DF80100E1B20223D1
:101210006A46224800F0ECF90E208DF80000042008
:101220008DF80100E1B202236A461C4800F0E0F9A3
:1012300027208DF8000000208DF80100E1B2022384
:101240006A46164800F0D4F91F208DF800000F20E0
:101250008DF80100E1B202236A46104800F0C8F997
:101260001A208DF800000F208DF80100E1B2022352
:101270006A460A4800F0BCF91B208DF800000F20D8
:101280008DF80100E1B202236A46044800F0B0F98B
:1012900000F006B800100240001000480054004062
:1012A0000CBCBDE8F087000038B5942404208DF80C
:1012B0000000AF208DF80100214602236A4608484D
:1012C00000F096F902208DF800009E208DF80100B4
:1012D000214602236A46024800F08AF938BD000020
:1012E00000540040F8B505469424642D01DD6420C7
:1012F00005E0C5EB0520642190FBF1F0C0B2064685
:10130000E62D1CDD20208DF80000A6F1E700C0B21C
:101310008DF80100E1B202236A46234800F068F923
:1013200021208DF80000A6F1E700C0B28DF8010081
:10133000E1B202236A461C4800F05AF91BE0202063
:101340008DF8000006F11900C0B28DF80100E1B27D
:1013500002236A46144800F04BF921208DF8000062
:1013600006F11900C0B28DF80100E1B202236A460D
:101370000D4800F03DF922208DF8000000208DF886
:101380000100E1B202236A46074800F031F9232048
:101390008DF8000000208DF80100E1B202236A46BA
:1013A000014800F025F9F8BD0054004070B504462E
:1013B000A08CC5B2154800784C2802D0522821D103
:1013C00005E0134805805220104908701BE01148C1
:1013D00005804C200D4908700E4A1288D1B20C4A83
:1013E0001288D0B2FFF752FDFFF7D8FC08B14220B7
:1013F00005E0FFF7E9FC08B1452000E06720064959
:10140000088000E000BF00BF70BD00001400002095
:1014100016000020180000202844004070B5522318
:10142000062107226F4CA0427ED16F4CA46D44F47C
:1014300000146D4DAC656C4C8834246824F4405421
:10144000C5F888402C46D4F8884044F48054C5F848
:1014500088402C46A46B44F40014AC632C46A46B67
:1014600024F40014AC632C46E46C44F00204EC64F5
:101470005E4C24684E000325B540AC435B4D2C60A8
:101480002C4624684E000225B5402C43574D2C6055
:101490002C46246856000325B540AC43534D2C60C0
:1014A0002C46246856000225B5402C434F4D2C6035
:1014B0004E4C2034246824F070644C4D20352C6050
:1014C0002C46246844F080642C602C46246824F068
:1014D00070442C602C46246844F080442C60434CBB
:1014E0000C3424684E000325B540AC433F4D0C3509
:1014F0002C602C46246856000325B540AC433B4D78
:101500000C352C60394C241D246801258D402C435A
:10151000364D2D1D2C602C462468012595402C430A
:10152000324D2D1D2C6000E011E02C1D24684E0072
:101530000225B5402C432D4D08352C602C462468DF
:1015400056000225B5402C43284D08352C60046810
:1015500024F001040460046824F4805404600468E6
:1015600024F470640460046844F080040460046837
:1015700024F40034046000240461046924F07044FD
:101580000461046944F0E0440461046944F03104F6
:101590000461046944F444540461046944F460043B
:1015A0000461046944F470240461846824F40044F0
:1015B000846043F400448460846824F400448460BC
:1015C000446824F400644460446844F00074446057
:1015D000446844F400444460046844F00104046036
:1015E00070BD00000054004000100240000400489C
:1015F0002DE9F0410446884617461D46002D00DDC2
:101600001FB94FF0FF30BDE8F081204600F063F8CD
:1016100000232A464146204600F024F8002608E030
:1016200000BFA06900F002000028FAD0B85DA062F7
:10163000761CAE42F4DB00BFA06900F0400020B988
:10164000A06900F010000028F6D0A06900F010009A
:1016500010B14FF0FF30D6E7204600F02DF8002003
:10166000D1E7000030B5044660686FF3090020F44C
:101670007F0020F0807020F0007020F4806020F463
:10168000005020F4804020F40060012B02D140F48F
:10169000806001E020F48060C1F3090528434FF425
:1016A0007F0505EA0245284340F40050014D2860BB
:1016B000606030BD1C000020416841F48041416001
:1016C00000BF816901F020010029FAD0C16941F011
:1016D0002001C161704700BF816901F40041B1F58B
:1016E000004FF9D07047000008B5FFF7E5F8FFF7A5
:1016F00019F8FEF733FFFFF787FB0120FEF714FE12
:101700003048FFF78BFEFFF755F8FFF7F3FBFFF7C5
:10171000CBFD00BFFFF742FB0028FBD0002000906C
:101720004C254EE02848006800F4E020B0F5E02F9A
:1017300047D02548006800F00800002841D04C2D13
:1017400002D0522D2DD116E0FFF74AFB044644B1DA
:10175000207800021C490831086020788DF80000CC
:1017600007E09DF8000000021749083108600020DA
:101770000860522517E044B1607800021249083130
:10178000086060788DF8010007E09DF80100000214
:101790000D490831086000200860FFF74FFB4C2519
:1017A00001E04C2500BF00BFFFF7F8FA08B1422066
:1017B00005E0FFF709FB08B1452000E06720034979
:1017C0000880AFE70054004018540140284400400E
:1017D0004FF04070E1EE100A70470000FC1700085F
:1017E0000000002020000000C40100081C180008B0
:1017F0002000002060060100E00100080000000059
:1018000000000000000000000000000000000000D8
:0C1810004C000000000000000000000080
:040000050800018965
:00000001FF
